:100000000C9434000C9451000C9451000C94510049
:100010000C9451000C9451000C9451000C9451001C
:100020000C9451000C9451000C9451000C9451000C
:100030000C9451000C9451000C9451000C945100FC
:100040000C9451000C9451000C946B040C943904E2
:100050000C94AA040C9451000C9451000C9451007F
:100060000C9451000C94510011241FBECFEFD4E02A
:10007000DEBFCDBF11E0A0E0B1E0E0E2FAE002C0F7
:1000800005900D92A439B107D9F722E0A4E9B1E0B7
:1000900001C01D92AA35B207E1F70E94B5040C9485
:1000A0000E050C940000672B09F073C08A3091058F
:1000B00011F4289808958B30910511F4299808952A
:1000C0008C30910511F42A9808958D30910511F422
:1000D0002B9808958E30910511F42C9808958F3047
:1000E000910511F42D9808958031910511F42E9801
:1000F00008958131910511F42F9808958431910567
:1001000011F4409808958531910511F441980895AE
:100110008631910511F4429808958731910511F4C3
:10012000439808958831910511F4449808958931D0
:10013000910511F4459808958A31910511F4469876
:1001400008958E31910511F4589808958F319105D5
:1001500011F4599808958032910511F45A98089530
:100160008132910511F45B9808958232910511F462
:100170005C9808958332910511F45D980895843256
:10018000910511F45E980895859709F073C05F9802
:1001900008958A30910511F4289A08958B309105BD
:1001A00011F4299A08958C30910511F42A9A089532
:1001B0008D30910511F42B9A08958E30910511F42C
:1001C0002C9A08958F30910511F42D9A089580315D
:1001D000910511F42E9A08958131910511F42F9A09
:1001E00008958431910511F4409A0895853191055F
:1001F00011F4419A08958631910511F4429A0895B7
:100200008731910511F4439A08958831910511F4CD
:10021000449A08958931910511F4459A08958A31D7
:10022000910511F4469A08958E31910511F4589A6A
:1002300008958F31910511F4599A089580329105EE
:1002400011F45A9A08958132910511F45B9A089538
:100250008232910511F45C9A08958332910511F46C
:100260005D9A08958432910511F45E9A08958597F8
:1002700009F45F9A0895CF93C82F80FF07C061E00B
:1002800070E082E290E00E94530006C060E070E0FF
:1002900082E290E00E945300C1FF07C061E070E07D
:1002A00083E290E00E94530006C060E070E083E2C9
:1002B00090E00E945300C2FF07C061E070E084E25A
:1002C00090E00E94530006C060E070E084E290E09D
:1002D0000E945300C3FF07C061E070E085E290E038
:1002E0000E94530006C060E070E085E290E00E944A
:1002F0005300CF910895CF93C82F60E070E08AE05B
:1003000090E00E9453008C2F0E943B0161E070E05E
:100310008BE090E00E9453008FE99FE00197F1F796
:1003200000C0000060E070E08BE090E00E945300AD
:100330008FE99FE00197F1F700C00000CF91089589
:1003400080E00E947B0181E00E947B010895CF93B1
:10035000C62F813059F480E8860F82958F700E94F5
:100360007B018C2F8F700E947B010CC0823051F476
:1003700080EC860F82958F700E947B018C2F8F708E
:100380000E947B01CF91089580E00E943B012FEFF6
:1003900089EF90E0215080409040E1F700C00000DC
:1003A00083E00E947B018FE19EE40197F1F700C09A
:1003B000000083E00E947B018FED9BEA0197F1F73B
:1003C00000C0000083E00E947B0182E00E947B016C
:1003D00082E00E947B0188E00E947B0180E00E9415
:1003E0007B018CE00E947B0180E00E947B0186E023
:1003F0000E947B010895CF93C82F61E070E08AE0EE
:1004000090E00E9453008C2F82958F700E943B01D8
:1004100061E070E08BE090E00E9453008FE99FE084
:100420000197F1F700C0000060E070E08BE090E021
:100430000E9453008FE99FE00197F1F700C0000090
:100440008C2F8F700E943B0161E070E08BE090E0A8
:100450000E9453008FE99FE00197F1F700C0000070
:1004600060E070E08BE090E00E9453008FE99FE035
:100470000197F1F700C00000CF910895CF93DF936B
:10048000EC018881882331F021960E94FB0189913B
:100490008111FBCFDF91CF91089587E68093C4004F
:1004A0001092C500A0ECB0E01C92E1ECF0E080817D
:1004B00080688083808188618083E2ECF0E08081C5
:1004C000866080838C918F7D8C9378940895F894C6
:1004D000E091980191E09E0F90939801F0E0E65230
:1004E000FE4F8083809198018F7780939801789454
:1004F0000895CF93DF93EC0188818D3031F0219600
:100500000E94670289918D30D9F7DF91CF910895CC
:100510000E94A00161E080E00E94A70180E091E0DC
:100520000E943E0208950E94A00161E080E00E94C6
:10053000A70186E091E00E943E0208959091990102
:10054000923149F018F4943091F01DC09934A9F01B
:10055000983539F018C08430C1F482E08093990155
:100560000895853091F483E0809399010895823055
:1005700061F481E08093990108958A3031F484E038
:100580008093990108951092990108950F931F93F4
:10059000CF93DF93109299010E94A00160E081E067
:1005A0000E94A7018CE091E00E943E026DE081E094
:1005B0000E94A70180919401805D0E94FB01E0915F
:1005C0009601F0E0E656FE4F80818823A1F1C0E05D
:1005D000D0E000E010E0E0919601F0E0E656FE4F3A
:1005E0008081F8018083F894E091960181E08E0F7C
:1005F00080939601F0E0E656FE4F9081809199013C
:10060000892780939901809196018F738093960139
:1006100078946C2F82E00E94A701F80180810E94EB
:10062000FB012196E0919601F0E0E656FE4F8081B5
:100630008111D1CF02C0C0E0D0E0F8948091960142
:100640008F5F80939601809196018F7380939601BE
:1006500078948C2F0E949E0280919901882349F002
:100660006CE082E00E94A70180919901805D0E9468
:10067000FB01DF91CF911F910F910895EF92FF92AF
:100680000F931F93CF93DF937C018B01C1ECD0E0DC
:1006900088818F7E888389E191E00E9479028DE0D4
:1006A0000E9467028881806288830E94A00160E0C6
:1006B00081E00E94A70184E291E00E943E028091C5
:1006C0009901813021F41DC0219719F49CC0C3E623
:1006D000D0E090919401992339F090919401915038
:1006E000909394010E94C6022FEF89E698E1215071
:1006F00080409040E1F700C0000090919901913056
:1007000019F71092990160E082E00E94A70180E34E
:1007100091E00E947902E1ECF0E080818F7E80839D
:10072000F80180818D3059F00E946702F8018191B3
:100730008F010E94FB01F80180818D30A9F78DE0C7
:100740000E946702E1ECF0E08081806280832FEFFD
:1007500089E698E1215080409040E1F700C0000018
:1007600080818F7E8083EA94EF2829F48AE391E0E8
:100770000E9479025BC080E591E00E94790256C038
:10078000219709F443C080919901833009F441C055
:1007900080919401882339F0809194018150809355
:1007A00094010E94C602FFEF29E688E1F150204043
:1007B0008040E1F700C0000080919901813001F78D
:1007C0008BE10E946702E1ECF0E080818F7E808304
:1007D0008081806280830E94A00160E082E00E94AC
:1007E000A70181E691E00E943E029FEFE9E6F8E171
:1007F0009150E040F040E1F700C000000E94880204
:1008000081E090E02FC080E090E02CC080E090E09C
:1008100029C080E090E026C080E090E023C0809175
:1008200099018330C9F3C3E6D0E0B2CFC1ECD0E088
:100830008881806288832FEF81EE94E02150804090
:100840009040E1F700C0000088818F7E88838AE1B4
:100850000E9467028881806288838091990181303B
:10086000F1F6AECFDF91CF911F910F91FF90EF90F6
:1008700008951F920F920FB60F9211248F939F939A
:10088000EF93FF93E091970181E08E0F80939701A2
:10089000F0E0E652FE4F80818093C6008091970180
:1008A0008F77809397019091980180919701981389
:1008B00008C0E1ECF0E080818F7D808380818061E1
:1008C00080837894FF91EF919F918F910F900FBE4D
:1008D0000F901F9018951F920F920FB60F92112430
:1008E0008F939F93EF93FF938091C6008D30A9F46F
:1008F000E091950181E08E0F80939501F0E0E6563E
:10090000FE4F1082809195018F73809395018091A5
:1009100094018F5F8093940113C0882389F08A30FB
:1009200079F0E091950191E09E0F90939501F0E0B0
:10093000E656FE4F8083809195018F7380939501D9
:100940007894FF91EF919F918F910F900FBE0F9030
:100950001F9018951F920F920FB60F921124789442
:100960000F900FBE0F901F9018958FEF8AB984B922
:100970000E94C4010E94A00161E081E00E94A701E1
:1009800088E691E00E943E022FEF87EA91E621502F
:1009900080409040E1F700C000000E94A0010E944A
:1009A0004D0287E791E00E943E02809194018823E6
:1009B000E1F3809194018150809394010E94C602DA
:1009C000809199018230D9F48CE791E00E947902FC
:1009D0008DE00E9467022FEF89E698E12150804068
:1009E0009040E1F700C0000062E871E081E090E033
:1009F0000E943E03892BC9F60E949302D6CF8091B4
:100A00009901843091F662E871E081E090E00E9403
:100A10003E03892B51F60E949302C7CFF894FFCF73
:100A20005265616479004572726F72004D6573732F
:100A300020696E204255463A0041542B434D4746AB
:100A40003D310D0053656E64696E6720746F3A0026
:100A500041542B434D47533D0D0044657669636512
:100A600020726561647920746F20776F726B0D005E
:100A700048656C6C6F2E20427574746F6E20310D5A
:100A80000053656E6465640048656C6C6F204D7939
:100A9000204C6F72642100576169740041544830E2
:100AA0000D00222B33383036363736373739393860
:040AB000220D000013
:00000001FF
